:04000000FEEFFFF020
:072600000002400000000091
:10260800D0B809EF13F00BEF13F089EF16F00AC5F5
:10261800D9F40BC5DAF4000EDF6E000E176E000E4B
:10262800166E17BE21EF13F0175009E1080E165C5D
:10263800D8A021EF13F023EF13F025EF13F0AFEF3D
:1026480013F0000E196E000E186ED0AE2EEF13F0B8
:1026580030EF13F032EF13F042EF13F0184A192A53
:1026680019BE40EF13F0200E185C4E0E1958D8A072
:1026780040EF13F042EF13F029EF13F019BE4EEFBD
:1026880013F0200E185C4E0E1958D8A04EEF13F018
:1026980050EF13F054EF13F0086809688DEF16F047
:1026A800D0AC59EF13F05BEF13F070EF13F016C5D1
:1026B8000CF5010E0D6E000E0E6E0C2A67EF13F06E
:1026C800D8900D360E360C2E64EF13F00DC50FF5AD
:1026D8000EC510F574EF13F0000E106E000E0F6E9D
:1026E8000AC5D9F40BC5DAF40F50DF26000E196EAF
:1026F800000E186ED0BE83EF13F085EF13F087EF4E
:1027080013F097EF13F0184A192A19BE95EF13F032
:10271800200E185C4E0E1958D8A095EF13F097EFBD
:1027280013F07EEF13F019BEA3EF13F0200E185C20
:102738004E0E1958D8A0A3EF13F0A5EF13F0ABEF86
:1027480013F0FF0E096EFE0E086E8DEF16F0164A96
:10275800172A15EF13F00AC5D9F40BC5DAF4DE040D
:10276800D8A4B9EF13F0BBEF13F0C1EF13F0000ECC
:10277800096E010E086E8DEF16F00AC5D9F40BC567
:10278800DAF4020EDE18D8A4CCEF13F0CEEF13F073
:10279800D0EF13F0BBEF13F00AC5D9F40BC5DAF488
:1027A800050EDE18D8A4DBEF13F0DDEF13F075EF9C
:1027B80014F05150100F136EC184000E176E000EE6
:1027C800166E17BEF1EF13F0175009E1080E165CEC
:1027D800D8A0F1EF13F0F3EF13F0F5EF13F072EF69
:1027E80014F016C50CF5800E0D6E000E0E6E0C2A38
:1027F80001EF14F00E340E320D320C2EFEEF13F0F2
:102808000D5013140009D8A40CEF14F00EEF14F0B7
:1028180011EF14F0C09A12EF14F0C08A000E196E6E
:10282800000E186ED0AE1BEF14F01DEF14F01FEF62
:1028380014F02FEF14F0184A192A19BE2DEF14F0CE
:10284800200E185C4E0E1958D8A02DEF14F02FEF5B
:1028580014F016EF14F019BE3BEF14F0200E185CBC
:102868004E0E1958D8A03BEF14F03DEF14F040EF8E
:1028780014F0C19450EF13F0000E196E000E186E8C
:10288800D0BE49EF14F04BEF14F04DEF14F05DEFAC
:1028980014F0184A192A19BE5BEF14F0200E185CC0
:1028A8004E0E1958D8A05BEF14F05DEF14F044EF0A
:1028B80014F019BE69EF14F0200E185C4E0E19586A
:1028C800D8A069EF14F06BEF14F06EEF14F0C19418
:1028D800A5EF13F0164A172AE5EF13F0C19483EF1A
:1028E80016F00AC5D9F40BC5DAF4DFA87EEF14F0A8
:1028F80080EF14F02EEF15F00AC5D9F40BC5DAF401
:10290800DF500C6E0F0E0C160C50260DD40EF3244F
:10291800D96E050EF420DA6EDEC414F5DDC415F5A3
:10292800C184000E176E000E166E17BEA5EF14F0C8
:10293800175009E1100E165CD8A0A5EF14F0A7EF08
:1029480014F0A9EF14F029EF15F016C50CF5000ED8
:102958000D6E800E0E6E0C2AB5EF14F0D8900E3264
:102968000D320C2EB2EF14F014500D1615500E1631
:102978000D500E10D8A4C3EF14F0C5EF14F0C8EF33
:1029880014F0C09AC9EF14F0C08A000E196E000E38
:10299800186ED0AED2EF14F0D4EF14F0D6EF14F0D6
:1029A800E6EF14F0184A192A19BEE4EF14F0200EC5
:1029B800185C4E0E1958D8A0E4EF14F0E6EF14F0A6
:1029C800CDEF14F019BEF2EF14F0200E185C4E0E85
:1029D8001958D8A0F2EF14F0F4EF14F0F7EF14F050
:1029E800C19450EF13F0000E196E000E186ED0BE91
:1029F80000EF15F002EF15F004EF15F014EF15F0E5
:102A0800184A192A19BE12EF15F0200E185C4E0E3E
:102A18001958D8A012EF15F014EF15F0FBEF14F0C9
:102A280019BE20EF15F0200E185C4E0E1958D8A0CC
:102A380020EF15F022EF15F025EF15F0C194A5EF62
:102A480013F0164A172A99EF14F0C19483EF16F081
:102A580083EF16F00AC5D9F40BC5DAF4DFAA37EF0D
:102A680015F039EF15F0E9EF15F0000E156E000EB0
:102A7800146E000E176E000E166E17BE4DEF15F091
:102A8800175009E1100E165CD8A04DEF15F04FEF66
:102A980015F051EF15F0D3EF15F0000E196E000E7A
:102AA800186ED0AE5AEF15F05CEF15F05EEF15F02A
:102AB8006EEF15F0184A192A19BE6CEF15F0200EA2
:102AC800185C4E0E1958D8A06CEF15F06EEF15F083
:102AD80055EF15F019BE7AEF15F0200E185C4E0E62
:102AE8001958D8A07AEF15F07CEF15F07EEF15F0A5
:102AF80050EF13F0D0AC83EF15F085EF15F09AEF97
:102B080015F016C50CF5010E0D6E000E0E6E0C2A92
:102B180091EF15F0D8900D360E360C2E8EEF15F07D
:102B28000DC511F50EC512F59EEF15F0000E126ECB
:102B3800000E116E1150142612501522000E196E37
:102B4800000E186ED0BEABEF15F0ADEF15F0AFEF7D
:102B580015F0BFEF15F0184A192A19BEBDEF15F088
:102B6800200E185C4E0E1958D8A0BDEF15F0BFEF17
:102B780015F0A6EF15F019BECBEF15F0200E185C76
:102B88004E0E1958D8A0CBEF15F0CDEF15F0CFEFBA
:102B980015F0A5EF13F0164A172A41EF15F00AC5EC
:102BA800D9F40BC5DAF4DF500C6E0F0E0C160C506E
:102BB800260DD20EF324D96E050EF420DA6E14C554
:102BC800DEF415C5DDF483EF16F00AC5D9F40BC59C
:102BD800DAF4030EDE18D8A4F4EF15F0F6EF15F0CA
:102BE8001EEF16F0000E196E000E186E18C501F5CE
:102BF80019C502F5000E046E260E036E10EC1FF0C8
:102C0800D10E0124D96E050E0220DA6E010EDF6E98
:102C1800184A192A19BE1AEF16F0195009E1100EB0
:102C2800185CD8A01AEF16F01CEF16F0FAEF15F0A2
:102C380083EF16F00AC5D9F40BC5DAF4040EDE18D2
:102C4800D8A429EF16F02BEF16F053EF16F0000E6C
:102C5800196E000E186E18C501F519C502F5000E9B
:102C6800046E260E036E10EC1FF0D10E0124D96EEF
:102C7800050E0220DA6E000EDF6E184A192A19BEF8
:102C88004FEF16F0195009E1100E185CD8A04FEF5D
:102C980016F051EF16F02FEF16F083EF16F00AC575
:102CA800D9F40BC5DAF40D0EDE18D8A45EEF16F0D1
:102CB80060EF16F06CEF16F0000E016E000E026E5B
:102CC800000E73EC1FF0110EBCEC1EF083EF16F033
:102CD8000AC5D9F40BC5DAF40E0EDE18D8A477EFBE
:102CE80016F079EF16F02CEF15F0000E016E000EBD
:102CF800026E000E73EC1FF0100EBCEC1EF0000EFE
:102D0800096E040E086E8DEF16F0000E096E000EA7
:102D1800086E12001250800B1B6E12501224216E86
:102D280011AE99EF16F09BEF16F09CEF16F021808C
:102D38002150D8B4A2EF16F0A4EF16F0B7EF16F0B2
:102D48002128D8A4AAEF16F0ACEF16F0B4EF16F0CD
:102D5800000E0F6E000E106E000E116E000E126E39
:102D6800118EBFEF16F0000E0F6E000E106E000EE3
:102D7800116E000E126E1650800B1B1A1650162478
:102D8800206E15AECAEF16F0CCEF16F0CDEF16F0A8
:102D980020802050D8B4D3EF16F0D5EF16F0E8EF26
:102DA80016F02028D8A4DBEF16F0DDEF16F0E5EFDB
:102DB80016F0000E136E000E146E000E156E000E47
:102DC800166E158EF0EF16F0000E136E000E146ED0
:102DD800000E156E000E166E2050D8B4F6EF16F0E1
:102DE800F8EF16F000EF17F02150D8A4FEEF16F018
:102DF80000EF17F00AEF17F0000E0F6E000E106EBE
:102E0800000E116E000E126EA2EF18F015500F0290
:102E1800F3C426F5F4C427F526501C6E1D6A1E6AF5
:102E28001F6A2750226E236A246A256A14501002EA
:102E3800F3C426F5F4C427F526501C26000E1D22DF
:102E48001E221F2227502226000E2322242225225A
:102E580013501102F3C426F5F4C427F526501C2696
:102E6800000E1D221E221F2227502226000E23227A
:102E7800242225221EC51FF51DC51EF51CC51DF5DE
:102E88001C6A13501002F3C426F5F4C427F5265023
:102E98001C2627501D22000E1E22000E1F22145031
:102EA8000F02F3C426F5F4C427F526501C26275034
:102EB8001D22000E1E22000E1F221EC51FF51DC555
:102EC8001EF51CC51DF51C6A13500F02F3C426F528
:102ED800F4C427F526501C2627501D22000E1E225A
:102EE800000E1F2215501002F3C426F5F4C427F56E
:102EF8002650222627502322000E2422000E2522A7
:102F080014501102F3C426F5F4C427F526502226DE
:102F180027502322000E2422000E252215501102CC
:102F2800F3C426F5F4C427F52650176E2750186EFB
:102F3800196A1A6A19C51AF518C519F517C518F5C1
:102F4800176A1750222618502322195024221A5083
:102F580025221CC517F51DC518F51EC519F51FC571
:102F68001AF5190EBDEF17F0D8901A321932183227
:102F78001732E82EB8EF17F01750222618502322E0
:102F8800195024221A5025221EC51FF51DC51EF5ED
:102F98001CC51DF51C6A205021C517F5186A17268F
:102FA800000E1822820E1724266EFF0E1820276E98
:102FB800F3EF17F0D89022362336243625361FAE85
:102FC800E8EF17F0EAEF17F0EBEF17F02280D89050
:102FD8001C361D361E361F362606D8A0270624AEF8
:102FE800F8EF17F0FAEF17F0DEEF17F0000E206E8B
:102FF8001FAE01EF18F003EF18F027EF18F0FF0EDF
:103008001C14176EFF0E1D14186EFF0E1E14196E79
:103018007F0E1F141A6E1750181019101A10D8B4F2
:1030280018EF18F01AEF18F01EEF18F0010E206EC6
:1030380027EF18F022A023EF18F025EF18F027EF5C
:1030480018F01AEF18F02050D8B42DEF18F02FEF21
:1030580018F053EF18F0010E2226000E2322242226
:10306800252225A03AEF18F03CEF18F053EF18F09E
:1030780022C517F523C518F524C519F525C51AF570
:103088001A341A3219321832173217C522F518C5F0
:1030980023F519C524F51AC525F5264A272A27BE7A
:1030A8005EEF18F0275008E12628D8A05EEF18F048
:1030B80060EF18F06AEF18F0000E226E000E236E13
:1030C800800E246E7F0E256E98EF18F027BE77EFDE
:1030D80018F0275006E12604D8B075EF18F077EFFE
:1030E80018F083EF18F0000E226E000E236E000E0B
:1030F800246E000E256E000E1B6E98EF18F026C584
:1031080021F5FF0E2216FF0E23167F0E2416000E41
:10311800251621A092EF18F094EF18F095EF18F00B
:10312800248ED8902130256E1B50251222C50FF50C
:1031380023C510F524C511F525C512F5120043EC79
:103148001FF0C192C194BF80BF92BF94000E506E11
:103158005050020D800EF324D96E050EF420DA6E5D
:10316800880EDE6E130EDD6E5050020D600EF324D5
:10317800D96E050EF420DA6E5C0EDE6E120EDD6E70
:103188005050260DD00EF324D96E050EF420DA6EB9
:10319800000EDF6E5050260DD20EF324D96E050EA8
:1031A800F420DA6E000EDE6E000EDD6E5050260D35
:1031B800D10EF324D96E050EF420DA6E010EDF6EFF
:1031C800502A0F0E5064EBEF18F0EDEF18F0ACEF4B
:1031D80018F0000E4F6E000E4C6E000E4A6E000E78
:1031E800496E000E4B6E090EBCEC1EF0080EBCECCE
:1031F8001EF0510E016E050E026E000E43EC1EF01D
:10320800110EBCEC1EF0100EBCEC1EF0000E506E41
:103218005050020D800EF324D96E050EF420DA6E9C
:10322800DEC43EF5DDC43FF53FC53EF53F6A3E507E
:10323800016E5050020D800EF324D96E050EF42055
:10324800DA6EDF50026E5050080DF350800F2AECF2
:103258001DF05050020D600EF324D96E050EF420B7
:10326800DA6EDEC43EF5DDC43FF53FC53EF53F6A84
:103278003E50016E5050020D600EF324D96E050EBB
:10328800F420DA6EDF50026E5050080DF350810FB3
:103298002AEC1DF0502A0F0E506455EF19F057EF25
:1032A80019F00CEF19F0C182430E086E050E096E75
:1032B8004E0E0A6E050E0B6E04EC13F009BE6DEF90
:1032C80019F0095008E10804D8A06DEF19F06FEF64
:1032D80019F0A3EF19F043C54DF54D04D8A477EFC5
:1032E80019F079EF19F085EF19F0000E016E000E54
:1032F800026E000E73EC1FF0110EBCEC1EF0A3EF73
:1033080019F0020E4D18D8A48CEF19F08EEF19F0B1
:103318009AEF19F0000E016E000E026E000E73ECAB
:103328001FF0100EBCEC1EF0A3EF19F04DAA9FEF92
:1033380019F0A1EF19F0A3EF19F0A3EF19F04C5011
:10334800D8A4A9EF19F0ABEF19F0B8EF19F0A00E57
:103358004F24D96EDA6A050EDA22DF5085EC1FF0A9
:10336800010E4C6E65EF1AF04C04D8A4BEEF19F0AC
:10337800C0EF19F0F6EF19F05DEC1FF00009D8B4B2
:10338800C8EF19F0CAEF19F065EF1AF068EC1FF0F2
:1033980001C547F502C548F54F50260DD00EF32458
:1033A800D96E050EF420DA6EDF503E6E3E50020DE7
:1033B800F3C43FF5F4C440F54F50260DB00EF32486
:1033C800416E050EF420426E3F504124D96E4050A4
:1033D8004220DA6E47C5DEF448C5DDF4020E4C6EB5
:1033E80065EF1AF0020E4C18D8A4FDEF19F0FFEFA4
:1033F80019F065EF1AF04F50260DD00EF324D96E50
:10340800050EF420DA6EDF2A4F50260DD00EF32475
:10341800D96E050EF420DA6E0F0EDF6416EF1AF07F
:1034280018EF1AF056EF1AF04F50F7EC1DF04F5006
:10343800260DD40EF324D96E050EF420DA6E01C5DC
:10344800DEF402C5DDF44F50260DD40EF324D96EF8
:10345800050EF420DA6EDEC432F5DDC433F54F50C4
:10346800260DD20EF324D96E050EF420DA6EDEC4D2
:1034780034F5DDC435F54F50260DD10EF324D96E41
:10348800050EF420DA6EDF50366E4F508EEC1AF0CF
:103498004F50260DD00EF324D96E050EF420DA6EA7
:1034A800000EDF6E000E4C6E4F2A0F0E4F645FEF5A
:1034B8001AF061EF1AF065EF1AF0000E4F6E65EF23
:1034C8001AF0100E495C270E4A58D8A06EEF1AF071
:1034D80070EF1AF088EF1AF0000E4A6E000E496E6F
:1034E8004B50D8A47AEF1AF07CEF1AF083EF1AF059
:1034F800110EBCEC1EF0010E4B6E88EF1AF0100E88
:10350800BCEC1EF0000E4B6E494A4A2A58EF19F0DF
:10351800FEEFFFF03D6E34503510D8B496EF1AF038
:1035280098EF1AF0C2EF1BF03604D8A49EEF1AF0F9
:10353800A0EF1AF0C2EF1BF03250345C335035580C
:10354800D8B0A9EF1AF0ABEF1AF038EF1BF0CD0E98
:10355800136ECC0E146ECC0E156E3D0E166E3450D6
:10356800325C376E35503358386E37C501F538C57B
:1035780002F5036A046A000ECDEC1BF001C50FF5D5
:1035880002C510F503C511F504C512F58EEC16F049
:103598000FC528F510C529F511C52AF512C52BF553
:1035A800A7EC1CF028C53BF529C53CF53D50020D9C
:1035B800600EF324D96E050EF420DA6E3B50DE2639
:1035C8003C50DD223D50020D600EF324D96E050EED
:1035D800F420DA6E3D50020D800EF324E16E050EE4
:1035E800F420E26EDE50E65CDE50E658D8B0FFEF1D
:1035F8001AF001EF1BF015EF1BF03D50020D800E85
:10360800F324D96E050EF420DA6E3D50020D600EDB
:10361800F324E16E050EF420E26EDEC4E6F4DDC4A8
:10362800E5F43D50020D600EF324D96E050EF4202A
:10363800DA6EDEC437F5DDC438F538C537F5386AD3
:103648003750016E3D50020D600EF324D96E050E01
:10365800F420DA6EDF50026E3D50080DF350810FF2
:103668002AEC1DF0CCEF1BF03450325C3550335847
:10367800D8B041EF1BF043EF1BF0CCEF1BF0CD0EA1
:10368800136ECC0E146ECC0E156E3D0E166E3250A7
:10369800345C376E33503558386E37C501F538C548
:1036A80002F5036A046A000ECDEC1BF001C50FF5A4
:1036B80002C510F503C511F504C512F58EEC16F018
:1036C8000FC528F510C529F511C52AF512C52BF522
:1036D800A7EC1CF028C53BF529C53CF53D50020D6B
:1036E800600EF324D96E050EF420DA6E3B50DE5CD2
:1036F8003C50DE58D8B083EF1BF085EF1BF093EFFA
:103708001BF03D50020D600EF324D96E050EF42017
:10371800DA6E000EDE6E000EDD6E9FEF1BF03D5080
:10372800020D600EF324D96E050EF420DA6E3B50BC
:10373800DE5E3C50DD5A3D50020D600EF324D96E1A
:10374800050EF420DA6EDEC437F5DDC438F538C569
:1037580037F5386A3750016E3D50020D600EF3247C
:10376800D96E050EF420DA6EDF50026E3D50080D5A
:10377800F350810F2AEC1DF0CCEF1BF0FF0E016E09
:10378800FF0E026E3D50080DF350810F2AEC1DF01C
:103798001200096E0950D8B4D4EF1BF0D6EF1BF015
:1037A800F8EF1BF004BEDDEF1BF0DBEF1BF0F8EFCA
:1037B8001BF001C505F502C506F503C507F504C5E7
:1037C80008F5051E061E071E081E052A000E0622FD
:1037D8000722082205C50BF506C50CF507C50DF52A
:1037E80008C50EF500EF1CF001C50BF502C50CF578
:1037F80003C50DF504C50EF50150021003100410A1
:10380800D8A409EF1CF00BEF1CF015EF1CF0000E0C
:10381800016E000E026E000E036E000E046EA6EF1F
:103828001CF0960E0A6E1FEF1CF00A2AD8900E3272
:103838000D320C320B32000E0B14056E000E0C14F8
:10384800066E000E0D14076EFE0E0E14086E05505F
:10385800061007100810D8A434EF1CF036EF1CF03F
:1038680019EF1CF044EF1CF00A2A010E0B26000E7B
:103878000C220D220E22D8900E320D320C320B3251
:10388800000E0B14056E000E0C14066E000E0D14BF
:10389800076EFF0E0E14086E05500610071008106C
:1038A800D8A459EF1CF05BEF1CF038EF1CF063EF65
:1038B8001CF00A06D8900B360C360D360E360DBEA7
:1038C80068EF1CF06AEF1CF072EF1CF0020E0A6041
:1038D80070EF1CF072EF1CF05DEF1CF00AB077EF90
:1038E8001CF079EF1CF07AEF1CF00D9ED8900A328C
:1038F8000AC505F5066A076A086A05C508F5076A6C
:10390800066A056A05500B1206500C1207500D1274
:1039180008500E120950D8B494EF1CF096EF1CF022
:103928009EEF1CF004BE9DEF1CF09BEF1CF09EEF79
:103938001CF00E8E0BC501F50CC502F50DC503F57F
:103948000EC504F512002A342B34316E3150D8A438
:10395800B0EF1CF0B2EF1CF0BCEF1CF0000E286EAC
:10396800000E296E000E2A6E000E2B6E29EF1DF038
:1039780028C52CF529C52DF52AC52EF52BC52FF5FB
:10398800200ECCEF1CF0D8902F322E322D322C3254
:10399800E82EC7EF1CF02C50306E2A8EFF0E28162A
:1039A800FF0E2916FF0E2A16000E2B16960E315EF4
:1039B80031BEE3EF1CF0E1EF1CF0F9EF1CF03150E1
:1039C800800A970FD8B0EBEF1CF0EDEF1CF0EFEF8B
:1039D8001CF0B2EF1CF0D8902B322A322932283250
:1039E800313EEFEF1CF011EF1DF01F0E3164FFEFB9
:1039F8001CF001EF1DF009EF1DF0B2EF1CF0D8909C
:103A0800283629362A362B3631063150D8A40FEFFE
:103A18001DF011EF1DF003EF1DF03050D8B417EF73
:103A28001DF019EF1DF021EF1DF02B1E2A1E291E77
:103A3800286C000E29222A222B2228C528F529C500
:103A480029F52AC52AF52BC52BF51200066EBF905D
:103A5800000E076E07C503F5800E046E000E056E96
:103A6800032A3AEF1DF0053405320432032E37EFEE
:103A78001DF0045006140009D8B445EF1DF047EFB7
:103A88001DF048EF1DF0BF84BF82BF92BF94072A84
:103A9800070E076452EF1DF054EF1DF02EEF1DF0D6
:103AA800000E076E07C503F5800E046E000E056E46
:103AB800032A62EF1DF0053405320432032E5FEF4E
:103AC8001DF0045001140009D8B46DEF1DF06FEF1C
:103AD8001DF070EF1DF0BF84BF82BF92BF94072A0C
:103AE800070E07647AEF1DF07CEF1DF056EF1DF00E
:103AF800000E076E07C503F5800E046E000E056EF6
:103B0800032A8AEF1DF0053405320432032E87EFAD
:103B18001DF0045002140009D8B495EF1DF097EF7A
:103B28001DF098EF1DF0BF84BF82BF92BF94072A93
:103B3800070E0764A2EF1DF0A4EF1DF07EEF1DF045
:103B4800BF801200000EC26E000EC16E000EBE6E67
:103B5800000EBF6E000EC06E070ECA6EC668F80E65
:103B6800C76EDF0EC86E410EC96E3F0E0401186F96
:103B78002F0E106FF70E086F070E206F0069000EEA
:103B8800196F000E216F000E096F000E016F000EF5
:103B9800116F000E0201896F000E886F000E876F8B
:103BA800000E866F000E0401226F000E026F000ED9
:103BB8000A6F000E126F000E1A6F03690B69136902
:103BC8001B69070E236F04690C6914691C690F0EC1
:103BD800246F1E0E02016E6F350E1E6F1F0E6D6F65
:103BE800340E206F1200096E000E0A6E000E0B6E66
:103BF800000E0C6E000E0D6E000E0E6E0E50020DB5
:103C0800F3C403F5F4C404F50950260DB00EF324EB
:103C1800056E050EF420066E03500524D96E045077
:103C28000620DA6EDEC407F5DDC408F507500A265B
:103C380008500B22000E0C22000E0D220E2A0F0E29
:103C48000E6429EF1EF02BEF1EF002EF1EF00AC5DE
:103C580003F50BC504F50CC505F50DC506F5050EF0
:103C68003BEF1EF0D8900632053204320332E82EBC
:103C780036EF1EF003C501F504C502F51200066E05
:103C8800BF90000E086E08C503F5800E046E000E86
:103C9800056E032A53EF1EF0053405320432032E55
:103CA80050EF1EF0045006140009D8B45EEF1EF061
:103CB80060EF1EF061EF1EF0BF84BF82BF92BF9419
:103CC800082A070E08646BEF1EF06DEF1EF047EF31
:103CD8001EF0000E076E000E086ED8900732BF82E5
:103CE800CFA679EF1EF07BEF1EF07CEF1EF0078E5B
:103CF800BF92082A070E086484EF1EF086EF1EF0B4
:103D080071EF1EF0BF8001C5D9F402C5DAF407C50A
:103D1800DFF41200000E0301D96F000EDA6F000EF7
:103D2800DB6F000EDC6F000EDF6F000EE06F000E21
:103D3800E56F000EE76F000EEC6F000EEE6F000EE1
:103D4800EF6F000EF06F000EF16F000EF26F000EB5
:103D5800F46F100EF56F000EF66F000EF76F030E7E
:103D6800F86F000EF96F000EFA6F840EF36F1200F1
:103D7800046EBF90000E056E05C501F5800E026E3B
:103D8800000E036E012ACCEF1EF003340332023218
:103D9800012EC9EF1EF0025004140009D8B4D7EF61
:103DA8001EF0D9EF1EF0DAEF1EF0BF84BF82BF927B
:103DB800BF94052A070E0564E4EF1EF0E6EF1EF037
:103DC800C0EF1EF0BF801200FA0EF66E3E0EF76EC0
:103DD800000EF86E01EEA0F110EE10F00900F5C427
:103DE800EEF4E550E150FAE101EEB0F110EE60F2C8
:103DF800EE6AE550E150FCE1E250FAE101EE60F1D3
:103E0800400EEE6AE806FDE1516A000EF86E260ED5
:103E1800F76E0001A3EF18F001500302F3C405F593
:103E2800F4C406F501500402F350062602500302BA
:103E3800F350062605C501F506C502F51200000E69
:103E48000001606F000E616F000E636F000E646FFB
:103E5800000E656F000E666F000E676F000E686FCC
:103E68001200700E0001AD6F000EAF6F000EB36F41
:103E7800020EB16F000EB06F000EAC6F120023EC93
:103E88001FF0A6EC1DF035EC1FF08EEC1EF08CEC4C
:103E98001FF050EC1FF01200020E0001916F400E4F
:103EA800926F000E936F000E996F000E966FC99E69
:103EB80012000301F3A163EF1FF066EF1FF0010E7C
:103EC80067EF1FF0000E12000301EB51046E036A46
:103ED800EA510324016E000E0420026E1200076EE0
:103EE8001E0E036E07C504F501C505F502C506F5E6
:103EF800120000010203040506071011121318200E
:103F08002122016E01C5ECF30301F38FF381120046
:083F1800810E0301D76F1200B6
:020000040001F9
:04FFFC00E8EF1EF01C
:020000040020DA
:10000000FFFFFFFFFFFFFFFFFFFFFFFFFFFFFFFF00
:10001000FFFFFFFFFFFFFFFFFFFFFFFFFFFFFFFFF0
:10002000FFFFFFFFFFFFFFFFFFFFFFFFFFFFFFFFE0
:10003000FFFFFFFFFFFFFFFFFFFFFFFFFFFFFFFFD0
:020000040030CA
:08000000FCFFF7FF9FFFFFFF6B
:01000900FFF7
:00000001FF
