:04000000FEEFFFF020
:1026000000EE2B00000000000000000000000000B1
:1026100000000000000000000000000000000000BA
:102620000000000000000000000000000000024068
:1026300000000000D3B61FEF13F021EF13F03AEFC4
:1026400013F035C5D9F436C5DAF4DF50376E37509C
:10265000296E2A6A8CEC14F029C542F52AC543F587
:102660001E0E42184310D8B438EF13F03AEF13F0AF
:102670003EEF13F03168326807EF14F020EE01F0FE
:102680003550D9263650DA22DF50376E3750296E52
:102690002A6A8CEC14F029C53AF52AC53BF53BBEF5
:1026A00056EF13F054EF13F058EF13F03AEF13F026
:1026B00020EE02F03550D9263650DA22DF50376E40
:1026C0003750296E2A6A8CEC14F029C542F52AC5C8
:1026D00043F543BE70EF13F06EEF13F072EF13F09B
:1026E0003AEF13F031C5D9F432C5DAF442C5DEF45D
:1026F00043C5DDF442C539F5FF0E3A24406EFF0EA6
:102700003B20416E41BE87EF13F089EF13F03AEFA3
:1027100013F041BE95EF13F0415009E1110E405CFA
:10272000D8A095EF13F097EF13F099EF13F03AEF6D
:1027300013F03D6A030E3C6E3F6A000E3E6EC9EF19
:1027400013F03C503524D96E3D503620DA6EDF5000
:10275000376E3750296E2A6A8CEC14F029C542F581
:102760002AC543F543BEB9EF13F0B7EF13F0BBEF43
:1027700013F03AEF13F03E503324D96E3F5034201B
:10278000DA6E42C5DFF4425039263C4A3D2A3E4AC1
:102790003F2A40503E5C3F50800A376E4150800ACD
:1027A0003758D8A0D6EF13F0D8EF13F0A1EF13F0FD
:1027B0003C503524D96E3D503620DA6EDF50376EEE
:1027C0003750296E2A6A8CEC14F029C542F52AC5C7
:1027D00043F543BEF0EF13F0EEEF13F0F2EF13F01A
:1027E0003AEF13F03950376E386A4250371809E122
:1027F00043503818D8B4FFEF13F001EF14F003EF93
:1028000014F03AEF13F040C531F541C532F512002E
:10281000486A000E476E24EC16F01B0E0501606F2F
:10282000010E616F800E626F270E316E050E326EE3
:10283000700E336E050E346E600E356E050E366EFC
:102840001AEC13F031C552F532C553F553BE2BEFD8
:1028500014F02DEF14F058EF14F027042810D8A42A
:1028600034EF14F036EF14F049EF14F00501715114
:10287000456E446A70514424036E000E4520046E78
:102880007351456E446A72514424016E000E452016
:10289000026E020E27182810D8A451EF14F053EF3F
:1028A00014F058EF14F070C529F52A6AA2EC15F05F
:1028B00056EC15F029500501636F62C546F563516A
:1028C000462646C564F548BE6FEF14F0E90E475C36
:1028D000030E4858D8A06FEF14F071EF14F074EFA6
:1028E00014F0C38C75EF14F0C39C474A482A48BEC5
:1028F00083EF14F0D00E475C070E4858D8A083EF42
:1029000014F085EF14F014EF14F0486A000E476ECF
:1029100014EF14F0FEEFFFF02E6A000E2D6E2C6AFD
:10292000000E2B6ED8902D342D6E2E342E6E29AEC7
:102930009CEF14F09EEF14F0A1EF14F0C380A2EF0F
:1029400014F0C390D8902934296E2A342A6E306A44
:10295000000E2F6ED3A4AFEF14F0B1EF14F0B3EF6D
:1029600014F0C7EF14F02F4A302A30BEC1EF14F034
:10297000100E2F5C270E3058D8A0C1EF14F0C3EF13
:1029800014F0AAEF14F029682A6802EF15F0D3A218
:10299000CCEF14F0CEEF14F0D0EF14F02D4A2E2A25
:1029A000306A000E2F6ED3B4D8EF14F0DAEF14F0C3
:1029B000DCEF14F0EEEF14F02F4A302A30BEEAEFCD
:1029C00014F0100E2F5C270E3058D8A0EAEF14F048
:1029D000ECEF14F0D3EF14F0C3EF14F02B4A2C2AD1
:1029E0002CBEFCEF14F02C5009E1080E2B5CD8A093
:1029F000FCEF14F0FEEF14F092EF14F02DC529F562
:102A00002EC52AF51200BE6ABF6AC06AC16AC26AD0
:102A1000C36A0401026B0A6B126B1A6B226B2A6B7E
:102A2000C668FE0EC76EF00EC86EF50EC96E0F0EAC
:102A3000CA6EBE0ECB6EF00E006FEE0E086FF00E7B
:102A4000106FF00E186F070E206FB00E286F016B1D
:102A5000096B116B196B216B296B03690B69136986
:102A60001B69070E236F2B6904690C6914691C69C3
:102A70000F0E246F2C690201896B886B876B866B44
:102A80001A0E6E6F350E1A6F180E6D6F340E196FA9
:102A90000401056B066B076B0D6B0E6B0F6B156BF3
:102AA000166B176B256B266B276B1200CEB65BEF90
:102AB00015F05DEF15F062EF15F0316A000E306E23
:102AC00065EF15F0316A080E306ECEB46AEF15F07E
:102AD0006CEF15F071EF15F0336A000E326E74EF83
:102AE00015F0336A040E326ECEB279EF15F07BEF3B
:102AF00015F080EF15F0356A000E346E83EF15F097
:102B0000356A020E346ECEB088EF15F08CEF15F0FA
:102B10002B6A2B2A8DEF15F02B6A2B5034242C6E48
:102B2000000E35202D6E32502C2633502D22305081
:102B30002C242E6E31502D202F6E2EC529F52FC539
:102B40002AF5120029A0A7EF15F0A9EF15F0ACEFB8
:102B500015F0C080ADEF15F0C09029A2B2EF15F0CE
:102B6000B4EF15F0B7EF15F0C082B8EF15F0C092D2
:102B700029A4BDEF15F0BFEF15F0C2EF15F0C0842A
:102B8000C3EF15F0C094810E29142B6E000E2A1489
:102B90002C6E2B502C10D8B4D0EF15F0D2EF15F0CE
:102BA000D5EF15F0C086D6EF15F0C0961200D69A74
:102BB000AF90D680000E296E000E2A6E000E2B6E8E
:102BC0003BEC16F0B490D682000E296E000E2A6EF1
:102BD000000E2B6E34EC16F0B890D684000E296EE1
:102BE000000E2A6E000E2B6E2DEC16F01200000166
:102BF000919FA394A392A390400E926F936B966BB8
:102C0000996B8F6B906B946B956B986B976B9485AE
:102C1000020E916F120001EE60F1200EEE6AE806DE
:102C2000FDE101EE01F1280EEE6AE806FDE100018A
:102C300008EF14F0600E0001AD6FAF6BB36B080EC0
:102C4000B16FB06BAC6B12001AEC16F003EC15F020
:102C5000F7EC15F0D7EC15F0120029C549F52AC597
:102C60004AF52BC54BF5120029C54CF52AC54DF583
:102C70002BC54EF5120029C54FF52AC550F52BC5B9
:042C800051F51200F8
:020000040001F9
:04FFFC000BEF16F001
:020000040030CA
:080000008FFFF7FF9FFFFFFFD8
:01000900FFF7
:00000001FF
