:04000000FEEFFFF020
:07260000000240003200005F
:1026080005018705D8B40BEF13F00DEF13F013EFA6
:1026180013F0000E116E000E106E17EF13F0000E7F
:10262800116E800E106E8205D8B41DEF13F01FEFE7
:1026380013F025EF13F0000E136E000E126E29EF43
:1026480013F0000E136E400E126E7D05D8B42FEFF6
:1026580013F031EF13F037EF13F0000E156E000E84
:10266800146E3BEF13F0000E156E200E146E7805F5
:10267800D8B441EF13F043EF13F049EF13F0000E15
:10268800176E000E166E4DEF13F0000E176E100E3B
:10269800166E7305D8B453EF13F055EF13F05BEFD4
:1026A80013F0000E196E000E186E5FEF13F0000E97
:1026B800196E080E186E6E05D8B465EF13F067EF43
:1026C80013F06DEF13F0000E1B6E000E1A6E71EF13
:1026D80013F0000E1B6E040E1A6E6905D8B477EF5E
:1026E80013F079EF13F07FEF13F0000E1D6E000E5C
:1026F8001C6E83EF13F0000E1D6E020E1C6E640537
:10270800D8B489EF13F08CEF13F0010E8DEF13F0AE
:10271800000E1C241A24182416241424122410240D
:102728000E6EAF05D8B49BEF13F09DEF13F0A3EF37
:1027380013F0000E1F6E000E1E6EA7EF13F0000EB2
:102748001F6E800E1E6EAA05D8B4ADEF13F0AFEF62
:1027580013F0B5EF13F0000E216E000E206EB9EFE6
:1027680013F0000E216E400E206EA505D8B4BFEF01
:1027780013F0C1EF13F0C7EF13F0000E236E000E35
:10278800226ECBEF13F0000E236E200E226EA005F2
:10279800D8B4D1EF13F0D3EF13F0D9EF13F0000E44
:1027A800256E000E246EDDEF13F0000E256E100E60
:1027B800246E9B05D8B4E3EF13F0E5EF13F0EBEFCD
:1027C80013F0000E276E000E266EEFEF13F0000ECA
:1027D800276E080E266E9605D8B4F5EF13F0F7EFBE
:1027E80013F0FDEF13F0000E296E000E286E01EFB6
:1027F80014F0000E296E040E286E9105D8B407EF68
:1028080014F009EF14F00FEF14F0000E2B6E000E09
:102818002A6E13EF14F0000E2B6E020E2A6E8C0532
:10282800D8B419EF14F01CEF14F0010E1DEF14F0DA
:10283800000E2A24282426242424222420241E248A
:102848000F6E000E046E030E036EFF0E066E056813
:102858000E0E076E050E086E000E0A6E020E096E49
:102868001FEC16F012008CEC19F0000E3D6E000EF5
:102878003C6E3CC501F53DC502F5000E046E050E23
:10288800036E4AEC19F0600E0124D96E050E022081
:10289800DA6E000EDE6E200EDD6E3CC501F53DC51C
:1028A80002F5000E046E050E036E4AEC19F0620E76
:1028B8000124D96E050E0220DA6E000EDE6E100EAF
:1028C800DD6E3CC501F53DC502F5000E046E050E32
:1028D800036E4AEC19F0640E0124D96E050E02202D
:1028E800DA6E010EDF6E3C4A3D2A3DBE85EF14F0DC
:1028F8003D5009E1100E3C5CD8A085EF14F087EF3D
:1029080014F03DEF14F0000E026E000E016EB2ECF2
:1029180019F0000E026E000E016EA6EC19F0010E01
:102928002C6E000E046E020E036EFF0E066E056816
:102938002C0E076E050E086E000E0A6E010E096E4B
:102948001FEC16F0000E2C6E000E046E020E036EC5
:10295800FF0E066E05682C0E076E050E086E000E3B
:102968000A6E010E096E1FEC16F0010E4B6E000E7A
:102978004A6E010E496E80EC17F0000E116E050EBE
:10298800106EFF0E136E12682C0E146E050E156E67
:10299800000E176E010E166E7CEC16F02CC547F56E
:1029A800486A000E3D6E000E3C6E3CC50EF53DC5F6
:1029B8000FF54EEC18F03CC50EF53DC50FF510ECC3
:1029C80018F03C4A3D2A3DBEF3EF14F03D5009E1B2
:1029D800100E3C5CD8A0F3EF14F0F5EF14F0D9EF2B
:1029E80014F004EC13F0010E33EC17F0000E3D6EFA
:1029F800000E3C6E3CC505F53DC506F5010E076E9B
:102A0800CCEC17F03C4A3D2A3DBE14EF15F03D5082
:102A180009E1100E3C5CD8A014EF15F016EF15F084
:102A2800FEEF14F0000E3D6E000E3C6E3CC505F541
:102A38003DC506F5000E076ECCEC17F03C4A3D2A62
:102A48003DBE30EF15F03D5009E1100E3C5CD8A0BA
:102A580030EF15F032EF15F01AEF15F0FAEF14F029
:102A6800FEEFFFF0D3BE3BEF15F03DEF15F043EF5F
:102A780015F0000E026E000E016E47EF15F0000E05
:102A8800026E800E016ED3BC4CEF15F04EEF15F0C0
:102A980054EF15F0000E046E000E036E58EF15F09B
:102AA800000E046E400E036ED3BA5DEF15F05FEFB3
:102AB80015F065EF15F0000E066E000E056E69EF55
:102AC80015F0000E066E200E056ED3B86EEF15F0E9
:102AD80070EF15F076EF15F0000E086E000E076E19
:102AE8007AEF15F0000E086E100E076ED3B67FEF62
:102AF80015F081EF15F087EF15F0000E0A6E000E45
:102B0800096E8BEF15F0000E0A6E080E096ED3B42D
:102B180090EF15F092EF15F098EF15F0000E0C6E8F
:102B2800000E0B6E9CEF15F0000E0C6E040E0B6E73
:102B3800D3B2A1EF15F0A3EF15F0A9EF15F0000E31
:102B48000E6E000E0D6EADEF15F0000E0E6E020E3D
:102B58000D6ED3B0B2EF15F0B5EF15F0010EB6EF6C
:102B680015F0000E0D240B24092407240524032442
:102B780001240F6E0F501200000EC26E000EC16EBF
:102B8800000EBE6E000EC36E000EBF6E000EC06E4D
:102B9800000ECA6ECB68850EC66EC00EC76E900E4C
:102BA800C86E000EC96E04011869670E106F0869B7
:102BB800070E206F000E286F0069000E196F000EB7
:102BC800296F000E216F000E096F000E016F000EB5
:102BD800116F000E0201896F000E886F000E876F5B
:102BE800000E866F000E0401226F000E2A6F000E81
:102BF800026F000E0A6F000E126F000E1A6F036943
:102C08000B6913691B69070E236F2B6904690C692B
:102C180014691C690F0E246F2C69130E02016A6F68
:102C2800310E146F320E166F200E176F170E726F5B
:102C3800140E6B6F1200000E026E000E016EB2ECE5
:102C480019F0000E026E010E016EBEEC19F0000EB6
:102C5800026E000E016EBEEC19F003C501F504C545
:102C680002F528EC19F005C501F506C502F5C6EC14
:102C780018F0000E026E000E016EA6EC19F0000EA0
:102C8800026E010E016EB2EC19F0000E0D6E000E10
:102C98000C6E66EF16F00C500724D96E0D50082004
:102CA800DA6EDF50D9EC16F0000E026E010E016EDE
:102CB800BEEC19F0000E026E000E016EBEEC19F0AB
:102CC8000C4A0D2A09500C5C0D50800A0B6E0A50F4
:102CD800800A0B58D8A073EF16F075EF16F04FEF77
:102CE80016F0000E026E000E016EB2EC19F0120022
:102CF800000E026E000E016EB2EC19F0000E026EAC
:102D0800010E016EBEEC19F0000E026E000E016E8F
:102D1800BEEC19F010C501F511C502F528EC19F043
:102D280012C501F513C502F5C6EC18F0000E026EC7
:102D3800010E016EA6EC19F0000E026E010E016E76
:102D4800B2EC19F0000E1A6E000E196EC3EF16F0F1
:102D5800000E026E010E016EBEEC19F0000E026E3E
:102D6800000E016EBEEC19F019501424D96E1A50D9
:102D78001520DA6E36EC15F0DF6E194A1A2A16504D
:102D8800195C1A50800A186E1750800A1858D8A073
:102D9800D0EF16F0D2EF16F0ACEF16F0000E026E80
:102DA800000E016EB2EC19F01200016E01A0DFEF07
:102DB80016F0E1EF16F0E4EF16F0C180E5EF16F03B
:102DC800C19001A2EAEF16F0ECEF16F0EFEF16F063
:102DD800C182F0EF16F0C19201A4F5EF16F0F7EFFB
:102DE80016F0FAEF16F0C184FBEF16F0C19401A6B5
:102DF80000EF17F002EF17F005EF17F0C18606EFA6
:102E080017F0C19601A80BEF17F00DEF17F010EFB0
:102E180017F0C18811EF17F0C19801AA16EF17F043
:102E280018EF17F01BEF17F0C18A1CEF17F0C19AC3
:102E380001AC21EF17F023EF17F026EF17F0C18C44
:102E480027EF17F0C19C01AE2CEF17F02EEF17F00B
:102E580031EF17F0C18E32EF17F0C19E12000E6EDF
:102E68004904D8B43AEF17F03CEF17F042EF17F0E7
:102E7800000E106E000E0F6E46EF17F0000E106E6B
:102E8800020E0F6E0E04D8B44CEF17F04EEF17F089
:102E980054EF17F0000E126E000E116E58EF17F077
:102EA800000E126E040E116E4B04D8B45EEF17F0CC
:102EB80060EF17F066EF17F0000E146E000E136E39
:102EC8006AEF17F0000E146E080E136E13501124DB
:102ED8000F24156E000E046E020E036EFF0E066EB2
:102EE8000568150E076E050E086E000E0A6E010EB7
:102EF800096E1FEC16F012004904D8B486EF17F0DB
:102F080088EF17F08EEF17F0000E0F6E000E0E6EA2
:102F180092EF17F0000E0F6E020E0E6E4A04D8B430
:102F280098EF17F09AEF17F0A0EF17F0000E116E58
:102F3800000E106EA4EF17F0000E116E040E106E46
:102F48004B04D8B4AAEF17F0ACEF17F0B2EF17F0B4
:102F5800000E136E000E126EB6EF17F0000E136E11
:102F6800080E126E125010240E24146E000E046EF9
:102F7800020E036EFF0E066E0568140E076E050E30
:102F8800086E000E0A6E010E096E1FEC16F0120094
:102F980006BED1EF17F0D3EF17F0FFEF17F005A03B
:102FA800D8EF17F0DAEF17F0DDEF17F0BF80DEEF9C
:102FB80017F0BF9005A2E3EF17F0E5EF17F0E8EF81
:102FC80017F0BF82E9EF17F0BF9205A4EEEF17F0F4
:102FD800F0EF17F0F3EF17F0BF84F4EF17F0BF949A
:102FE80005A6F9EF17F0FBEF17F0FEEF17F0BF8615
:102FF800FFEF17F0BF96BF98BF9A0750D8A407EF06
:1030080018F009EF18F00CEF18F0BF880DEF18F062
:10301800BF8ACAEC19F012000EC501F50FC502F5FA
:10302800000E046E050E036E4AEC19F0620E0124C0
:10303800D96E050E0220DA6EDF50126E0EC501F54C
:103048000FC502F5000E046E050E036E4AEC19F06A
:10305800620E0124D96E050E0220DA6EDEC410F568
:10306800DDC411F511C510F5116A1050136E000E6C
:10307800046E010E036E0EC505F50FC506F5120E9A
:10308800076E050E086E000E0A6E020E096E1FEC22
:1030980016F012000EC501F50FC502F5000E046EFC
:1030A800050E036E4AEC19F0600E0124D96E050E68
:1030B8000220DA6EDF50126E0EC501F50FC502F55B
:1030C800000E046E050E036E4AEC19F0600E012422
:1030D800D96E050E0220DA6EDEC410F5DDC411F5D6
:1030E80011C510F5116A1050136E000E046E000E13
:1030F800036E0EC505F50FC506F5120E076E050E13
:10310800086E000E0A6E020E096E1FEC16F0120011
:10311800000E0201A56F000EA66F000EA76F000E2D
:10312800A86F000EA96F000EAA6FB00EAB6F800ECD
:10313800AC6F000EAD6F0C0EAE6F000EAF6F000ED1
:10314800B06F000EB16F000EB26F000EB36F000EBD
:10315800016E000E026E000E036EDCEC19F0000E1C
:10316800016E000E026E000E036ED5EC19F0000E13
:10317800016E000E026E000E036EE3EC19F0000EF5
:103188004C6E120002BECBEF18F0CDEF18F0F9EF3D
:1031980018F001A0D2EF18F0D4EF18F0D7EF18F01C
:1031A800BE82D8EF18F0BE9201A2DDEF18F0DFEF73
:1031B80018F0E2EF18F0C080E3EF18F0C09001A417
:1031C800E8EF18F0EAEF18F0EDEF18F0C082EEEF34
:1031D80018F0C09201A6F3EF18F0F5EF18F0F8EF29
:1031E80018F0C084F9EF18F0C0941200000E030123
:1031F800D96F000EDA6F000EDB6F000EDC6F000E69
:10320800DF6F000EE06F000EE56F000EE76F000E37
:10321800EC6F000EEE6F000EEF6F000EF06F000EF9
:10322800F16F000EF26F000EF46F100EF56F000EC6
:10323800F66F000EF76F100EF86F000EF96F000EA4
:10324800FA6F840EF36F120001A02DEF19F02FEF23
:1032580019F032EF19F0BE8633EF19F0BE9601A2CD
:1032680038EF19F03AEF19F03DEF19F0BE883EEF4C
:1032780019F0BE9801A443EF19F045EF19F048EF93
:1032880019F0BE8A49EF19F0BE9A120001500302E4
:10329800F3C405F5F4C406F501500402F3500626FC
:1032A80002500302F350062605C501F506C502F5CE
:1032B8001200000E0001606F000E616F000E636F58
:1032C800000E646F000E656F000E666F000E676F6C
:1032D800000E686F120001EE60F1500EEE6AE8060B
:1032E800FDE14C6A4B6A4A6A496A486A476A0001C2
:1032F80037EF14F0700E0001AD6F000EAF6F000EC7
:10330800B36F020EB16F000EB06F000EAC6F1200FB
:103318005DEC19F0C0EC15F07EEC19F0FAEC18F041
:103328008CEC18F099EC19F01200020E0001846F71
:10333800400E856F000E866F000E8C6F320E896FFF
:10334800C896120001A0ABEF19F0ADEF19F0B0EF7D
:1033580019F0C284B1EF19F0C294120001A0B7EFBE
:1033680019F0B9EF19F0BCEF19F0C282BDEF19F0EE
:10337800C292120001A0C3EF19F0C5EF19F0C8EF0F
:1033880019F0C280C9EF19F0C29012000301EB5185
:10339800046E036AEA510324016E000E0420026ED3
:1033A800120001C541F502C542F503C543F51200F7
:1033B80001C544F502C545F503C546F5120001C52A
:0C33C8003EF502C53FF503C540F51200BC
:020000040001F9
:04FFFC006FEF19F09A
:020000040020DA
:10000000FF0FFF0FFF0FFF0FFF0FFF0FFF0FFF0F80
:10001000FF0FFF0FFF0FFF0FFF0FFF0FFF0FFF0F70
:10002000FF0FFF0FFF0FFF0FFF0FFF0FFF0FFF0F60
:10003000FF0FFF0FFF0FFF0FFF0FFF0FFF0FFF0F50
:020000040030CA
:0A000000FCFFF7FF9FFFFFFFFFFF6B
:00000001FF
