:040000000DEF00F010
:0400080071EF07F09D
:10001800FF0040EF09F00DEC09F0000E046E000E31
:10002800036E58EC09F0000E046E010E036E64ECCA
:1000380009F0000E046E000E036E64EC09F0000E69
:10004800046E000E036E4CEC09F0000E136E030EE6
:10005800126E1C0E146E050E156E000E176E010E34
:10006800166ECFEC05F01CC51BF50F0E1B161B50AA
:100078002C6E2D6A020E1C6E000E066E030E056EA7
:100088001C0E076E050E086E000E0A6E010E096E34
:1000980086EC06F0300E036E050E046E1C0E056E1F
:1000A800050E066E310E076E050E086E000E0A6EFE
:1000B800100E096E2BEC03F0E806D8A466EF00F0EA
:1000C80068EF00F04EEF00F0800E3018D8A46FEF04
:1000D80000F071EF00F07EEF00F02CC51CF51C0E4F
:1000E800046E050E056E010E066E710E17EC04F017
:1000F8004EEF00F030AC83EF00F085EF00F0A3EF97
:1001080000F0325007E1110E315CD8B08EEF00F0EC
:1001180090EF00F04EEF00F030C51BF50F0E1B16E8
:100128001B50056E066A1C0E076E050E086E31C55B
:1001380009F532C50AF586EC06F04EEF00F030AA54
:10014800A8EF00F0AAEF00F0E1EF00F032BEB5EF43
:1001580000F0325008E13104D8A0B5EF00F0B7EF55
:1001680000F04EEF00F01CC531F5326A325007E15D
:10017800110E315CD8B0C3EF00F0C5EF00F024EFEA
:1001880001F030C51BF50F0E1B161B50126E136ABB
:100198001C0E146E050E156E31C516F532C517F511
:1001A800CFEC05F01C0E046E050E056E31C506F584
:1001B800305017EC04F04EEF00F030500F0B2F6E5C
:1001C80030380F0B0F0B2E6E2EC504F51C0E056E66
:1001D800050E066E31C507F52F503BEC02F0E80618
:1001E800D8A4F9EF00F0FBEF00F024EF01F02F0E98
:1001F800036E050E046E2E0E056E050E066E1C0EA1
:10020800076E050E086E310E096E050E0A6E000E99
:100218000C6E100E0B6E28EC01F0E806D8A417EF50
:1002280001F019EF01F024EF01F01C0E046E050E29
:10023800056E31C506F5720E17EC04F04EEF00F0AE
:100248004EEF00F00DEF00F09BEC09F0E806D8A4A3
:1002580030EF01F032EF01F03EEF01F024EC07F04F
:10026800146E1E0E1418D8B43CEF01F03EEF01F0E6
:1002780041EF01F0000E3AEF02F014C510F586ECDC
:1002880009F0FAEC09F09BEC09F0E806D8A44FEF66
:1002980001F051EF01F053EF01F05FEF01F0A5EC31
:1002A80009F0E806D8A45BEF01F05DEF01F047EF35
:1002B80001F03EEF01F024EC07F0146E03C5D9F409
:1002C80004C5DAF414C5DFF41450101A86EC09F0EA
:1002D800FAEC09F09BEC09F0E806D8A476EF01F0F7
:1002E80078EF01F07AEF01F086EF01F0A5EC09F064
:1002F800E806D8A482EF01F084EF01F06EEF01F078
:100308003EEF01F024EC07F0146E05C5D9F406C5DC
:10031800DAF414C5DFF41450101A86EC09F0FAEC7C
:1003280009F09BEC09F0E806D8A49DEF01F09FEFD7
:1003380001F0A1EF01F0ADEF01F0A5EC09F0E8063E
:10034800D8A4A9EF01F0ABEF01F095EF01F03EEF73
:1003580001F024EC07F0136E1350101A000E126E01
:10036800000E116EE3EF01F086EC09F0FAEC09F0EB
:100378009BEC09F0E806D8A4C4EF01F0C6EF01F041
:10038800C8EF01F0D4EF01F0A5EC09F0E806D8A415
:10039800D0EF01F0D2EF01F0BCEF01F03EEF01F039
:1003A80024EC07F0146E11500724D96E125008205F
:1003B800DA6E14C5DFF41450101A114A122A1350B9
:1003C8000D6E0E6A0D50115C1250800A0F6E0E50A1
:1003D800800A0F58D8B0F3EF01F0F5EF01F004EF01
:1003E80002F00B50115C1250800A0D6E0C50800AFE
:1003F8000D58D8A002EF02F004EF02F0B8EF01F0B8
:1004080086EC09F0FAEC09F09BEC09F0E806D8A4B0
:1004180010EF02F012EF02F014EF02F020EF02F0FA
:10042800A5EC09F0E806D8A41CEF02F01EEF02F0D4
:1004380008EF02F03EEF01F024EC07F0146E1450C0
:100448001018D8B42AEF02F02CEF02F02EEF02F0C9
:100458003EEF01F013500D6E0E6A09C5D9F40AC5B6
:10046800DAF40DC5DEF40EC5DDF4010E12000B6ED4
:1004780086EC09F0FAEC09F0F8EC08F0E806D8A4E4
:1004880048EF02F04AEF02F04CEF02F059EF02F0A9
:10049800A5EC09F0E806D8A454EF02F056EF02F0F4
:1004A80040EF02F0000E2AEF03F01E0E7BEC09F07D
:1004B8001E0E0E6E86EC09F0FAEC09F0F8EC08F066
:1004C800E806D8A46AEF02F06CEF02F06EEF02F0D3
:1004D8007AEF02F0A5EC09F0E806D8A476EF02F06E
:1004E80078EF02F062EF02F056EF02F00BC50FF55D
:1004F8000F507BEC09F00F500E1A86EC09F0FAEC5D
:1005080009F0F8EC08F0E806D8A48DEF02F08FEFB8
:1005180002F091EF02F09DEF02F0A5EC09F0E80679
:10052800D8A499EF02F09BEF02F085EF02F056EFA6
:1005380002F004C50FF50F507BEC09F00F500E1AAE
:1005480086EC09F0FAEC09F0F8EC08F0E806D8A413
:10055800B0EF02F0B2EF02F0B4EF02F0C0EF02F039
:10056800A5EC09F0E806D8A4BCEF02F0BEEF02F053
:10057800A8EF02F056EF02F007C50FF50F507BEC1D
:1005880009F00F500E1A000E0D6E000E0C6EF8EFEB
:1005980002F086EC09F0FAEC09F0F8EC08F0E8064D
:1005A800D8A4D9EF02F0DBEF02F0DDEF02F0E9EFBB
:1005B80002F0A5EC09F0E806D8A4E5EF02F0E7EFB1
:1005C80002F0D1EF02F056EF02F00C500524D96E7C
:1005D8000D500620DA6EDF500F6E0F507BEC09F0DD
:1005E8000F500E1A0C4A0D2A0750086E096A085057
:1005F8000C5C0D50800A0A6E0950800A0A58D8A06F
:1006080008EF03F00AEF03F0CDEF02F086EC09F0F3
:10061800FAEC09F0F8EC08F0E806D8A416EF03F0B5
:1006280018EF03F01AEF03F026EF03F0A5EC09F03A
:10063800E806D8A422EF03F024EF03F00EEF03F04E
:1006480056EF02F00E507BEC09F0010E120091EC0F
:1006580009F0E806D8A433EF03F035EF03F041EFD3
:1006680003F0D7EC06F0126E1E0E1218D8B43FEF46
:1006780003F041EF03F044EF03F0000E16EF04F02F
:1006880012C50EF586EC09F0FAEC09F091EC09F0C8
:10069800E806D8A452EF03F054EF03F056EF03F046
:1006A80062EF03F0A5EC09F0E806D8A45EEF03F0CA
:1006B80060EF03F04AEF03F041EF03F0D7EC06F0E8
:1006C800126E03C5D9F404C5DAF412C5DFF412506A
:1006D8000E1A86EC09F0FAEC09F091EC09F0E8063C
:1006E800D8A479EF03F07BEF03F07DEF03F089EFF7
:1006F80003F0A5EC09F0E806D8A485EF03F087EF2E
:1007080003F071EF03F041EF03F0D7EC06F0116E40
:1007180011500E1A000E106E000E0F6EBFEF03F090
:1007280086EC09F0FAEC09F091EC09F0E806D8A497
:10073800A0EF03F0A2EF03F0A4EF03F0B0EF03F093
:10074800A5EC09F0E806D8A4ACEF03F0AEEF03F08F
:1007580098EF03F041EF03F0D7EC06F0126E0F505C
:100768000524D96E10500620DA6E12C5DFF4125037
:100778000E1A0F4A102A11500B6E0C6A0B500F5CA0
:100788001050800A0D6E0C50800A0D58D8B0CFEF6B
:1007980003F0D1EF03F0E0EF03F009500F5C1050C5
:1007A800800A0B6E0A50800A0B58D8A0DEEF03F0BF
:1007B800E0EF03F094EF03F086EC09F0FAEC09F0AF
:1007C80091EC09F0E806D8A4ECEF03F0EEEF03F0A3
:1007D800F0EF03F0FCEF03F0A5EC09F0E806D8A46D
:1007E800F8EF03F0FAEF03F0E4EF03F041EF03F062
:1007F800D7EC06F0126E12500E18D8B406EF04F0BB
:1008080008EF04F00AEF04F041EF03F011500B6E0B
:100818000C6A07C5D9F408C5DAF40BC5DEF40CC5B3
:10082800DDF4010E12000A6E86EC09F0FAEC09F00C
:10083800E3EC08F0E806D8A424EF04F026EF04F06F
:1008480028EF04F034EF04F0A5EC09F0E806D8A48A
:1008580030EF04F032EF04F01CEF04F0E1EF04F0A5
:100868001E0E70EC09F01E0E0B6E86EC09F0FAEC09
:1008780009F0E3EC08F0E806D8A445EF04F047EFE8
:1008880004F049EF04F055EF04F0A5EC09F0E80690
:10089800D8A451EF04F053EF04F03DEF04F0E1EF7A
:1008A80004F00AC50EF50E5070EC09F00E500B1A44
:1008B80086EC09F0FAEC09F0E3EC08F0E806D8A4B5
:1008C80068EF04F06AEF04F06CEF04F078EF04F0DE
:1008D800A5EC09F0E806D8A474EF04F076EF04F06C
:1008E80060EF04F0E1EF04F006C50EF50E5070EC71
:1008F80009F00E500B1A000E0D6E000E0C6EB0EFC4
:1009080004F086EC09F0FAEC09F0E3EC08F0E806EC
:10091800D8A491EF04F093EF04F095EF04F0A1EF61
:1009280004F0A5EC09F0E806D8A49DEF04F09FEFC9
:1009380004F089EF04F0E1EF04F00C500424D96EC0
:100948000D500520DA6EDF500E6E0E5070EC09F077
:100958000E500B1A0C4A0D2A0650076E086A0750EB
:100968000C5C0D50800A096E0850800A0958D8A0FE
:10097800C0EF04F0C2EF04F085EF04F086EC09F054
:10098800FAEC09F0E3EC08F0E806D8A4CEEF04F09E
:10099800D0EF04F0D2EF04F0DEEF04F0A5EC09F09C
:1009A800E806D8A4DAEF04F0DCEF04F0C6EF04F0B0
:1009B800E1EF04F00B5070EC09F01200D1BEE7EF44
:1009C80004F0E9EF04F0EFEF04F0000E046E000EFF
:1009D800036EF3EF04F0000E046E800E036ED1BCBC
:1009E800F8EF04F0FAEF04F000EF05F0000E066EE1
:1009F800000E056E04EF05F0000E066E400E056E43
:100A0800D1BA09EF05F00BEF05F011EF05F0000E74
:100A1800086E000E076E15EF05F0000E086E200E2A
:100A2800076ED1B81AEF05F01CEF05F022EF05F0BC
:100A3800000E0A6E000E096E26EF05F0000E0A6E13
:100A4800100E096ED1B62BEF05F02DEF05F033EF40
:100A580005F0000E0C6E000E0B6E37EF05F0000E61
:100A68000C6E080E0B6ED1B43CEF05F03EEF05F0AE
:100A780044EF05F0000E0E6E000E0D6E48EF05F007
:100A8800000E0E6E040E0D6ED1B24DEF05F04FEF55
:100A980005F055EF05F0000E106E000E0F6E59EFC1
:100AA80005F0000E106E020E0F6ED1B05EEF05F06D
:100AB80061EF05F0010E62EF05F0000E0F240D2422
:100AC8000B240924072405240324116E1150120055
:100AD800000EC26E000EC16E000EBE6E000EC36E1A
:100AE800000EBF6E000EC06E070ECA6E000ECB6EF3
:100AF800810EC66EEF0EC76E800EC86EC968000EF6
:100B08000401186F7F0E106FD80E086F070E206F44
:100B180028697F0E006F000E196F000E296F000EF6
:100B2800216F000E096F000E016F000E116F000E8D
:100B38000201896F000E886F000E876F000E866FA6
:100B4800000E0401226F000E2A6F000E026F000EC5
:100B58000A6F000E126F000E1A6F03690B69136992
:100B68001B69070E236F2B6904690C6914691C69DA
:100B78000F0E246F2C690D0E0201746F080E3E6F64
:100B8800230E0D6F0A0E406F090E3F6F200E176F70
:100B9800170E726F1200000E046E010E036E64ECE5
:100BA80009F0000E046E000E036E64EC09F012C525
:100BB80003F513C504F54CEC08F0000E046E010EA5
:100BC800036E4CEC09F0000E046E010E036E58EC37
:100BD80009F0000E1A6E000E196E0AEF06F0000EEC
:100BE800046E010E036E64EC09F0000E046E000E34
:100BF800036E64EC09F019501424D96E1A501520AC
:100C0800DA6EE2EC04F0DF6E194A1A2A1650195C03
:100C18001A50800A186E1750800A1858D8A017EF73
:100C280006F019EF06F0F3EF05F0000E046E000E63
:100C3800036E58EC09F0000E046E010E036E64ECAE
:100C480009F0000E046E000E036E64EC09F0120049
:100C5800036E03A032EF06F034EF06F037EF06F02C
:100C6800C08038EF06F0C09003A23DEF06F03FEFDA
:100C780006F042EF06F0C08243EF06F0C09203A4EC
:100C880048EF06F04AEF06F04DEF06F0C0844EEF4D
:100C980006F0C09403A653EF06F055EF06F058EFA0
:100CA80006F0C08659EF06F0C09603A85EEF06F07E
:100CB80060EF06F063EF06F0C08864EF06F0C098B6
:100CC80003AA69EF06F06BEF06F06EEF06F0C08A34
:100CD8006FEF06F0C09A03AC74EF06F076EF06F0FB
:100CE80079EF06F0BE8A7AEF06F0BE9A03AE7FEF80
:100CF80006F081EF06F084EF06F0BE8C85EF06F073
:100D0800BE9C120005C503F506C504F54CEC08F0B9
:100D1800000E046E000E036E4CEC09F0000E046E1B
:100D2800010E036E58EC09F0000E0D6E000E0C6EED
:100D3800B5EF06F00C500724D96E0D500820DA6E76
:100D4800DF502CEC06F0000E046E010E036E64EC0E
:100D580009F0000E046E000E036E64EC09F00C4AF4
:100D68000D2A09500C5C0D50800A0B6E0A50800A3F
:100D78000B58D8A0C2EF06F0C4EF06F09EEF06F0BD
:100D8800000E046E000E036E58EC09F0000E046E9F
:100D9800010E036E64EC09F0000E046E000E036E83
:100DA80064EC09F01200B6A0DCEF06F0DEEF06F006
:100DB800D7EF06F0000E4E6E0201C5A7E6EF06F06B
:100DC800E8EF06F0F6EF06F04E8202D8F6EF06F0EE
:100DD8000500FA6E3950FD6E3A50FE6E3B50FF6EBC
:100DE800FA5012000201C5A3FCEF06F0FEEF06F070
:100DF8000CEF07F04E8402D80CEF07F00500FA6EEE
:100E08003650FD6E3750FE6E3850FF6EFA501200A5
:100E18004E50D8B412EF07F014EF07F021EF07F0A7
:100E280002D821EF07F00500FA6E3350FD6E3450FA
:100E3800FE6E3550FF6EFA5012000201B4511200D6
:100E4800B2A029EF07F02BEF07F024EF07F0000E10
:100E58004F6E0201B2A733EF07F035EF07F043EF0B
:100E680007F04F8202D843EF07F00500FA6E4B50A7
:100E7800FD6E4C50FE6E4D50FF6EFA50120002018E
:100E8800B2A349EF07F04BEF07F059EF07F04F8493
:100E980002D859EF07F00500FA6E4850FD6E495028
:100EA800FE6E4A50FF6EFA5012004F50D8B45FEFF2
:100EB80007F061EF07F06EEF07F002D86EEF07F06A
:100EC8000500FA6E4550FD6E4650FE6E4750FF6EA7
:100ED800FA5012000201A1511200FAC401F5FBC434
:100EE80002F59FA07AEF07F07CEF07F087EF07F095
:100EF800AFA081EF07F083EF07F087EF07F0F6EC7C
:100F080009F0ABEF07F0A4A08CEF07F08EEF07F025
:100F180099EF07F0B4A093EF07F095EF07F099EF7A
:100F280007F0F2EC09F0ABEF07F0A8A09EEF07F08E
:100F3800A0EF07F0ABEF07F0B8A0A5EF07F0A7EF19
:100F480007F0ABEF07F0EEEC09F0ABEF07F002C5E6
:100F5800FBF401C5FAF41100000E0201A56F000EA2
:100F6800A66F000EA76F000EA86F000EA96F000EE7
:100F7800AA6FB00EAB6F800EAC6F000EAD6F400E57
:100F8800AE6F030EAF6F000EB06F000EB16F000EA4
:100F9800B26F000EB36F060E036E140E046E000ED1
:100FA800056ECBEC09F0040E036E140E046E000EF1
:100FB800056EC4EC09F0080E036E140E046E000EE4
:100FC800056ED2EC09F0000E4F6E1200000E020101
:100FD800B86F000EBA6F000EBC6FB00EBE6F800EF9
:100FE800BF6F000EC06F400EC16F030EC26F000EC0
:100FF800C36F000EC46F000EC56F000EC66F000EE3
:10100800036E140E046E000E056EB6EC09F0FE0EAB
:10101800036E130E046E000E056EAFEC09F0020E9F
:10102800036E140E046E000E056EBDEC09F0000E82
:101038004E6E1200000E0301D96F000EDA6F000E1B
:10104800DB6F000EDC6F000EDF6F000EE06F000E2E
:10105800E56F000EE76F000EEC6F000EEE6F000EEE
:10106800EF6F000EF06F000EF16F000EF26F000EC2
:10107800F46F100EF56F000EF66F000EF76F000E8E
:10108800F86F000EF96F000EFA6F840EF36F1200FE
:1010980003A051EF08F053EF08F056EF08F0C384AF
:1010A80057EF08F0C39403A25CEF08F05EEF08F076
:1010B80061EF08F0C38662EF08F0C39603A467EFF8
:1010C80008F069EF08F06CEF08F0C3886DEF08F0DE
:1010D800C39803A672EF08F074EF08F077EF08F0F2
:1010E800C38A78EF08F0C39A1200AF90D6800E0E2C
:1010F800036E140E046E000E056EE7EC09F09F8077
:10110800B490D6820C0E036E140E046E000E056E9B
:10111800E0EC09F0A480B890D6840A0E036E140E91
:10112800046E000E056ED9EC09F0A88012003C5040
:101138003D103E10D8B4A3EF08F0A5EF08F0B2EFC9
:1011480008F002D8B2EF08F00500FA6E3C50FD6EC8
:101158003D50FE6E3E50FF6EFA50120012003F5096
:1011680040104110D8B4BBEF08F0BDEF08F0CAEF4B
:1011780008F002D8CAEF08F00500FA6E3F50FD6E7D
:101188004050FE6E4150FF6EFA501200120042505D
:1011980043104410D8B4D3EF08F0D5EF08F0E2EFCD
:1011A80008F002D8E2EF08F00500FA6E4250FD6E32
:1011B8004350FE6E4450FF6EFA5012001200000EAB
:1011C800036EB6A2EAEF08F0ECEF08F0F6EF08F0CD
:1011D8000201BEABF2EF08F0F4EF08F0F6EF08F00A
:1011E800010E036E03501200000E036EB2A2FFEF51
:1011F80008F001EF09F00BEF09F00201ABAB07EFC4
:1012080009F009EF09F00BEF09F0010E036E035026
:101218001200FDEC09F020EC09F06CEC05F032EC62
:1012280009F01EEC08F079EC08F086EC09F0EAEC1D
:1012380007F0B0EC07F01200000E0001606F000E1E
:10124800616F000E636F000E646F000E656F000E15
:10125800666F000E676F000E686F1200600E000167
:10126800AD6F000EAF6F000EB36F080EB16F000EBA
:10127800B06F000EAC6F12004F6A4E6A0401080E80
:101288005D6F000E5E6F000E5F6F00010FEF00F0E4
:1012980003A051EF09F053EF09F056EF09F0C382AC
:1012A80057EF09F0C392120003A05DEF09F05FEF5A
:1012B80009F062EF09F0C38063EF09F0C3901200F0
:1012C80003A069EF09F06BEF09F06EEF09F0C38C2A
:1012D8006FEF09F0C39C1200036EB6A276EF09F017
:1012E80078EF09F071EF09F003C5B6F21200036E4A
:1012F800B2A281EF09F083EF09F07CEF09F003C592
:10130800A3F21200840E03011B6FC10E196F000EA9
:10131800186FB19E890E1A6F1200B6B096EF09F0D9
:1013280099EF09F0010E9AEF09F0000E1200B2B021
:10133800A0EF09F0A3EF09F0010EA4EF09F0000EE9
:101348001200B1BEAAEF09F0ADEF09F0010EAEEF41
:1013580009F0000E120003C536F504C537F505C5BA
:1013680038F5120003C539F504C53AF505C53BF54E
:10137800120003C533F504C534F505C535F512006B
:1013880003C548F504C549F505C54AF5120003C566
:101398004BF504C54CF505C54DF5120003C545F5DB
:1013A80004C546F505C547F5120003C53CF504C557
:1013B8003DF505C53EF5120003C53FF504C540F5EA
:1013C80005C541F5120003C542F504C543F505C539
:1013D80044F51200B8909BEC08F01200B490B3ECFE
:1013E80008F01200AF90CBEC08F0120003011A8F3E
:1013F8001200D69A120012001200120012001200F7
:08140800120012001200120094
:020000040020DA
:10000000FF0FFF0FFF0FFF0FFF0FFF0FFF0FFF0F80
:10001000FF0FFF0FFF0FFF0FFF0FFF0FFF0FFF0F70
:10002000FF0FFF0FFF0FFF0FFF0FFF0FFF0FFF0F60
:10003000FF0FFF0FFF0FFF0FFF0FFF0FFF0FFF0F50
:020000040030CA
:0A0000008CFFF7FF9FFFFFFFFFFFDB
:00000001FF
