:04000000FEEF7FF0A0
:072E0000000040000001008A
:102E08004FEC18F084EC17F08FEC18F0000E88ECFB
:102E180018F0000E23EC18F001C506F502C507F5F9
:102E2800000E0AEC18F0010E23EC18F001C508F5A5
:102E380002C509F5020E23EC18F001C50AF502C512
:102E48000BF5040E23EC18F001C50CF502C50DF5C1
:102E5800050E23EC18F001C50EF502C50FF5070E97
:102E680023EC18F001C510F502C511F5080E23EC86
:102E780018F001C512F502C513F50C0E23EC18F075
:102E880001C514F502C515F50D0E23EC18F001C5A2
:102E980016F502C517F50E0E23EC18F001C518F546
:102EA80002C519F50F0E23EC18F001C51AF502C575
:102EB8001BF5100E23EC18F001C51CF502C51DF515
:102EC800110E23EC18F001C51EF502C51FF5120EF0
:102ED80023EC18F001C520F502C521F5160E23ECE8
:102EE80018F001C522F502C523F5170E23EC18F0DA
:102EF80001C524F502C525F50DEF17F0FEEF7FF0AB
:102F0800000E0301F96F000EFA6F000ED86F000E65
:102F1800FB6F000ED96F000EDA6F000EDB6F000E2C
:102F2800DC6F000EDF6F000EE06F000EE36F000E27
:102F3800E46F000EE56F000EE66F000EE76F000EFF
:102F4800EA6F000EEB6F000EEC6F000EEE6F000ED6
:102F5800EF6F000EF06F000EF16F000EF26F000EB3
:102F6800F36F000EF46F100EF56F000EF66F000E83
:102F7800F76F030EF86F000EFC6FAF94AF96B0902A
:102F8800000E016E000E026E7FEC18F0000E016E4E
:102F9800000E026E75EC18F0000E016E000E026E47
:102FA8007AEC18F0840E0301F36F1200000EBE6E67
:102FB800000EBF6E000EC06E080ECA6EC668C768E7
:102FC800DF0EC86EE70E0401106F0869BF0E006FB0
:102FD800000E216F000E096F000E016F000E116FB9
:102FE800000E026F000E0A6F000E126F03690B6964
:102FF800136904690C691469080E246F130E020121
:103008006A6F320E166F140E6B6F1200036E11EF9B
:1030180018F00301FC8F22EF18F00350016E026ACA
:103028000250000AD8B41BEF18F022EF18F0015034
:10303800000AD8B40DEF18F022EF18F01200056E50
:1030480005C5ECF30301F38FF39DF381F3B12FEF83
:1030580018F031EF18F02AEF18F0EB51046E036AFC
:10306800EA510324016E000E0420026E1200000EC5
:103078000001606F000E616F000E626F000E636FDB
:10308800000E646F000E656F000E666F000E676FAE
:10309800000E686F12003BEC18F0DAEC17F084ECC5
:1030A80017F069EC18F084EC18F05CEC18F01200DA
:1030B800000E0001846F400E856F000E866F000EB3
:1030C8008C6F000E896FC8861200700E0001AD6FFC
:1030D800000EAF6F000EB36F020EB16F000EB06F2F
:1030E800120001C528F502C529F5120001C526F50B
:1030F80002C527F5120001C52AF502C52BF51200F5
:10310800810E0301D76F1200016E01C5FBF3120097
:0C311800000104EF17F00301F39B12000C
:04FFFC008CEF18F07E
:020000040020DA
:10000000FFFFFFFFFFFFFFFFFFFFFFFFFFFFFFFF00
:10001000FFFFFFFFFFFFFFFFFFFFFFFFFFFFFFFFF0
:10002000FFFFFFFFFFFFFFFFFFFFFFFFFFFFFFFFE0
:10003000FFFFFFFFFFFFFFFFFFFFFFFFFFFFFFFFD0
:020000040030CA
:10000000FCEFF7FF9FFFFFFFFFFFFFFFFFFFFFFF7B
:10001000FFFFFFFFFFFFFFFFFFFFFFFFFFFFFFFFF0
:03002000FFFFFFE0
:00000001FF
